:100000000C9455000C947D000C947D000C947D00A4
:100010000C947D000C947D000C947D000C947D006C
:100020000C947D000C947D000C947D000C947D005C
:100030000C947D000C947D000C947D000C947D004C
:100040000C9462160C947D000C949F130C94D113A5
:100050000C947D000C947D000C947D000C947D002C
:100060000C947D000C947D000D0A446973636F6EDF
:100070006E65637465642066726F6D20616363658D
:1000800073736F7279000D0A436F6E6E65637465EA
:100090006420746F206163636573736F727900000D
:1000A000BB1152120114ED11561211241FBECFEFD5
:1000B000D8E0DEBFCDBF11E0A0E0B1E0E8E8F3E3B7
:1000C00002C005900D92AA3FB107D9F723E0AAEF2D
:1000D000B1E001C01D92AE34B207E1F710E0C6EA0C
:1000E000D0E004C02297FE010E946317C03AD107F6
:1000F000C9F70E9443120C94B7190C940000FC013C
:100100008AE091E0918380831582108681E0818767
:1001100012869F012E5F3F4F37832683128288E02D
:1001200083838CE3848380E090E041E0DF01A80FCB
:10013000B91F1D961C921D971E964C931E971F96D5
:100140001C921F971C963C932E931B9705968B34FD
:10015000910561F7EA58FF4F108281E18093FF011A
:10016000089520E030E041E0FC01E20FF31F5585E7
:10017000561739F04F5F2B5F3F4F4031A9F780E0B2
:100180000895842F0895EF92FF921F93CF93DF93EA
:1001900000D0CDB7DEB77C01162F67FD5FC02830D9
:1001A00008F05CC0442331F0DC0115968C91873057
:1001B00009F454C060E0C7012A8349830E94B1005A
:1001C0002A814981882309F449C0E82FF0E0111100
:1001D00023C085E08E9FD0018F9FB00D1124AE0DFE
:1001E000BF1D442359F081E418968C93D7011596CE
:1001F0008C9115978F5F15968C9303C081E01896AC
:100200008C9385E08E9FD0018F9FB00D1124AE0D91
:10021000BF1D18968C9123C0612F6770660F660F03
:10022000660F442361F06064D70115968C91159791
:100230008F5F15968C938770687F682B03C027703B
:10024000687B622B85E08E9FD0018F9FB00D1124BB
:10025000AE0DBF1D18966C93862F01C080E00F90E5
:100260000F90DF91CF911F91FF90EF900895CF9362
:10027000DF93EC01662359F00E94B100882349F016
:100280009E0145E0849F200D311D1124C901069671
:1002900002C080E090E0DF91CF910895CF93DF938B
:1002A0001F92CDB7DEB749830E943701498100977D
:1002B00089F0DC01ED91FC911197309759F013967C
:1002C0009C9180E0891731F02081241731F033961A
:1002D0008F5FF8CF80E090E001C0CF010F90DF91F9
:1002E000CF910895EF92FF921F93CF93DF931F92C8
:1002F000CDB7DEB7162F79012115310569F0498395
:100300000E943701FC014981009741F01283F1827C
:10031000E082438380E003C088ED01C086ED0F904A
:10032000DF91CF911F91FF90EF9008952A98089543
:100330002A9A0895CF93DF931F92CDB7DEB78983B2
:100340000E94960189818EBD0DB407FEFDCF1EBCB3
:100350000DB407FEFDCF0E9498018EB50F90DF917E
:10036000CF910895CF93DF9300D0CDB7DEB76A83E6
:1003700089830E949601898182608EBD6A810DB455
:1003800007FEFDCF6EBD0DB407FEFDCF0F900F90A1
:10039000DF91CF910C9498018F929F92BF92CF9250
:1003A000DF92EF92FF920F931F93CF93DF931F92F1
:1003B000CDB7DEB74C01B62E690149830E943701E3
:1003C0007C014981009709F443C0FC01808191813F
:1003D000892B09F43FC06B2DC4010E944E01F60128
:1003E000918380830097C1F1FC0122812695269597
:1003F000822F90E0409764F441E050E060E070E0CC
:1004000004C0440F551F661F771F2A95D2F702C0FC
:1004100040E050E841505109F801518340836B2D71
:1004200080EE0E94B20188ED0E949A01F70194814A
:10043000992339F0F401EA58FF4F60816260682B1C
:1004400002C0682F697F88ED0E94B20180E005C07C
:1004500086ED03C087ED01C08BED0F90DF91CF914A
:100460001F910F91FF90EF90DF90CF90BF909F90E2
:100470008F9008958F929F92AF92BF92CF92DF920A
:10048000EF92FF920F931F93CF93DF931F92CDB7FD
:10049000DEB7A62E890149830E94AC166B017C0150
:1004A00088E8C80E83E1D81EE11CF11C812C912C38
:1004B000B12C20E04981A42A29830E94AC166C1932
:1004C0007D098E099F09298197FF2DC06A2D80EF34
:1004D0000E94B2010E94AC166C197D098E099F0919
:1004E00097FF09C088EC0E949A0187FFF3CF60E86C
:1004F00088EC0E94B20188EF0E949A01282F2F7089
:10050000243019F02E3059F00EC0EFEF8E1A9E0AEB
:100510000115110589F28016910671F604C0B39495
:10052000F3E0BF12C9CF822F0F90DF91CF911F91BF
:100530000F91FF90EF90DF90CF90BF90AF909F9082
:100540008F9008959F92AF92BF92CF92DF92EF92D9
:10055000FF920F931F93CF93DF937C01B42E122F42
:10056000AA24A394DC01A60FB11DA60FB11D6D0135
:1005700086E5C80ED11CC42FD0E0AB96CC0FDD1F92
:10058000CE0DDF1DD6018D919C91DC01ED91FC918A
:100590000280F381E02D202F412F6B2D0995803EA5
:1005A000C1F4B1100BC061E088EE0E94B20166E6B2
:1005B00070E080E090E00E94DB1615C08881998190
:1005C000DC01ED91FC910284F385E02D612F09950A
:1005D0000AC08D3031F48FEF8A0D833008F042C0AD
:1005E00017C0811142C0F60180819181DC01ED913B
:1005F000FC910190F081E02D202F412F6B2D09956A
:10060000982EBDE08B130CC08FEF8A0D833050F411
:1006100064E670E080E090E00E94DB16A394B2CF25
:10062000882311F1B1100BC061E088EE0E94B20185
:1006300066E670E080E090E00E94DB1611C0EB2DD2
:10064000F0E0BB96EE0FFF1FEE0DFF1D8081918144
:10065000DC01ED91FC910284F385E02D612F099579
:10066000892D03C08DE001C080E0DF91CF911F9103
:100670000F91FF90EF90DF90CF90BF90AF909F9041
:1006800008950F931F93CF93DF9300D0CDB7DEB7BC
:100690008A016A8389830E949601898182608EBD66
:1006A000F8016A81862F882339F00DB407FEFDCF4B
:1006B00091919EBD8150F7CF060F111D0DB407FE1D
:1006C000FDCF0E949801C8010F900F90DF91CF914C
:1006D0001F910F9108952F923F924F925F926F92C8
:1006E0007F928F929F92AF92BF92CF92DF92EF92C2
:1006F000FF920F931F93CF93DF9300D000D01F92F0
:10070000CDB7DEB77D836C835A016901FB0121807F
:100710008FEF820D803408F06FC00E94AC162B0161
:100720003C01F8E84F0EF3E15F1E611C711CEC8187
:10073000FD81828180FF02C060E801C060E488EE34
:100740000E94B20120E0312CC114D10409F444C04C
:1007500076012C143D0408F47101EA82A8016E2D83
:1007600080E10E9441036E2D88E30E94B201EC817A
:10077000FD816081606280EF0E94B20188EC0E947E
:100780009A0187FFFBCF60E888EC0E94B20188EFF6
:100790000E949A01282F2F70812C912C19822223DC
:1007A00009F46BC02B830E94AC1664197509860985
:1007B00097092B8197FF61C0263001F12E3009F493
:1007C00056C0243049F4FFEF8F1A9F0AA114B104D8
:1007D00059F18A149B0441F588EF2B830E949A01FA
:1007E00085FB882780F9EC81FD81928180FB90F95F
:1007F00092832B81822F46C08AED44C088EF0E94ED
:100800009A0185FB882780F991E08927EC81FD8199
:10081000928180FB90F9928390FF02C060E801C052
:1008200060E488EE0E94B20160E088E30E94B201B9
:10083000F801608180E10E94B2016A8188E30E9430
:10084000B201EC81FD816081606280EF0E94B201A3
:1008500088EC0E949A0187FFFBCF60E888EC0E9439
:10086000B20188EF0E949A01282F2F7098CF8981BA
:100870008F5F89838330C1F6AFCFCE18DF080E0DAE
:100880001F1D62CF0F900F900F900F900F90DF9170
:10089000CF911F910F91FF90EF90DF90CF90BF907D
:1008A000AF909F908F907F906F905F904F903F9010
:1008B0002F900895AF92BF92CF92DF92EF92FF9266
:1008C0000F931F93CF93DF9300D000D0CDB7DEB747
:1008D0007C01690158011C821B821A8219828E01D7
:1008E0000F5F1F4F9E012D5F3F4F0E94CC01811172
:1008F00009C049815A816B817C8185019601C701BC
:100900000E946B030F900F900F900F90DF91CF918B
:100910001F910F91FF90EF90DF90CF90BF90AF901D
:1009200008952F923F924F925F926F927F928F9293
:100930009F92AF92BF92CF92DF92EF92FF920F936E
:100940001F93CF93DF93CDB7DEB729970FB6F894F7
:10095000DEBF0FBECDBF4C01798768875C834B83B8
:100960006901F901A080B180FB01F181FA83F901ED
:1009700011821082FB01828181FF02C060E201C00E
:1009800060E188EE0E94B2012E2C312C412C512CBA
:10099000AD822B813C81E885F985408160E0C4010E
:1009A0000E943A0289838630B1F488EF0E949A014E
:1009B00082958170F1E08F27E885F985928180FB2F
:1009C00091F9928391FF02C060E201C060E188EE7C
:1009D0000E94B201DECF9981911162C088EC0E9421
:1009E0009A0182FF5BC080E30E949A01F82E282FB3
:1009F00030E0A216B30608F4FD80F60120813181B3
:100A00006F2C712CA501421B530B57FF02C040E015
:100A100050E09301461557050CF49A012E833F834D
:100A20000E949601F8E0FEBD3F812E810DB407FEC5
:100A3000FDCFF801822F800F8E1739F01EBC0DB448
:100A400007FEFDCF4EB54193F7CF020F131F0E9453
:100A5000980164E088EC0E94B201F60120813181A6
:100A6000260D371D31832083FA81FF1618F02A15D1
:100A70003B0560F088EF0E949A0182958170E885BD
:100A8000F985928180FB91F992830AC0EE2009F4E6
:100A900080CFC201B1010E94DB167BCF90EF99831A
:100AA000898129960FB6F894DEBF0FBECDBFDF91C6
:100AB000CF911F910F91FF90EF90DF90CF90BF905B
:100AC000AF909F908F907F906F905F904F903F90EE
:100AD0002F9008952F923F924F925F926F927F9244
:100AE0008F929F92AF92BF92CF92DF92EF92FF923E
:100AF0000F931F93CF93DF93CDB7DEB762970FB6F7
:100B0000F894DEBF0FBECDBF3C01F42E322E202E56
:100B10005C2D4FA058A4C9A4DAA4188A1F861E868B
:100B20001D868E01035F1F4F9E01215F3F4F598B32
:100B30000E94CC015989811194C039822A82EB82AA
:100B40005C83BE82AD8298868F82AE014F5F5F4F1D
:100B500068E080E20E9441032D853E854F2D60E1D3
:100B6000C3010E943A02182F81117AC0232C221C43
:100B70002224221CC114D10409F466C0EF85F8892F
:100B80008281222009F453C082608283540133247D
:100B90003394A114B10409F455C05C864B864D858D
:100BA0005E856F857889E12C86019E01255F3F4F28
:100BB000C3010E949104182F8630B1F42F85388923
:100BC00088EF298B3A8B0E949A0185FB882780F950
:100BD000832529893A89D90112969C91129780FB25
:100BE00091F912969C93D5CF81113AC0EBA5FCA543
:100BF0003097A1F00190F081E02D0190F081E02D7F
:100C0000C4018A199B099A8789876B857C859E0117
:100C1000275F3F4FA6018BA59CA509958B859C85D9
:100C2000A81AB90A8415950508F0B3CF0DC08160E4
:100C300082834D855E8586019201BF01C3010E94BA
:100C40006B03182F11110CC02D853E85222011F049
:100C500060EA01C060E84F2DC3010E943A0201C062
:100C6000812F62960FB6F894DEBF0FBECDBFDF9125
:100C7000CF911F910F91FF90EF90DF90CF90BF9099
:100C8000AF909F908F907F906F905F904F903F902C
:100C90002F9008958F929F92AF92BF92CF92EF9232
:100CA0000F931F931F921F921F930F933F932F93A6
:100CB0004901A12CB12CCC24C394E12C06E020E8FE
:100CC0000E946A050F900F900F900F900F900F9059
:100CD0001F910F91EF90CF90BF90AF909F908F900A
:100CE00008958F929F92AF92BF92CF92EF92FF9210
:100CF0000F931F921F92FF92EF923F932F93490100
:100D0000A12CB12C32E0C32EE02E06E020E80E9498
:100D10006A050F900F900F900F900F900F900F910A
:100D2000FF90EF90CF90BF90AF909F908F900895DD
:100D30003F924F925F926F927F928F929F92AF926B
:100D4000BF92CF92DF92EF92FF920F931F93CF93B8
:100D5000DF93CDB7DEB7C054D1090FB6F894DEBF2C
:100D60000FBECDBF3C01562E442E322EB02ECE01EA
:100D700001966C017C01022F29E030E0C3010E9442
:100D8000710681111BC08B809C801F93BF92DF92E4
:100D9000CF921F9280E48F93A12CB12C42E0C42EFD
:100DA000E32C06E020E8442D652DC3010E946A056E
:100DB0000F900F900F900F900F900F90C05CDF4F2F
:100DC0000FB6F894DEBF0FBECDBFDF91CF911F915C
:100DD0000F91FF90EF90DF90CF90BF90AF909F90DA
:100DE0008F907F906F905F904F903F9008958F927B
:100DF0009F92AF92BF92CF92EF920F93CF931F9299
:100E00001F921F921F921F921F92812C912CA12C36
:100E1000B12CC12CE22E05E020E00E946A05C82F0B
:100E20006CE271E080E090E00E94DB160F900F9082
:100E30000F900F900F900F908C2FCF910F91EF90FC
:100E4000CF90BF90AF909F908F9008958F929F9278
:100E5000AF92BF92CF92EF920F931F921F921F9269
:100E60001F921F921F92812C912CA12CB12CC12C6E
:100E7000E22E09E020E00E946A050F900F900F908B
:100E80000F900F900F900F91EF90CF90BF90AF9079
:100E90009F908F9008958F929F92AF92BF92CF9222
:100EA000DF92EF920F931F93CF93DF9300D000D088
:100EB000CDB7DEB76C01590148011C821B821A8232
:100EC00019828E010F5F1F4F9E012D5F3F4F0E94C1
:100ED000CC01811109C049815A816B817C818401D7
:100EE0009501C6010E9491040F900F900F900F90F2
:100EF000DF91CF911F910F91EF90DF90CF90BF9036
:100F0000AF909F908F900895CF92DF92FF920F93B2
:100F10001F93CF93DF9300D0CDB7DEB76C0166236C
:100F200009F442C0062F10E085E0689FB00111244B
:100F3000F601E60FF71F8085282F277086FF19C05E
:100F400031E065E0F62EF601F39EE00DF11D11246F
:100F5000808586958695869587708217E1F03F5F3C
:100F6000303188F3F6018581821303C02150F601E8
:100F7000258385E0809FF001819FF00D1124EC0D09
:100F8000FD1D108681E08187128682E0C80ED11C8B
:100F9000D782C68209C0632FC6012A8339830E9483
:100FA00084072A813981CFCF0F900F90DF91CF91A5
:100FB0001F910F91FF90DF90CF900895CF93DF9313
:100FC000EC016134A1F4FC01855B9F4F41E09E017F
:100FD0002E5F3F4F158646871786348723873596C1
:100FE000E817F907B9F71D82DF91CF9108950E94A4
:100FF000B100682FCE01DF91CF910C9484070F933D
:101000001F93CF93DF93EC01022FCA3F8FEFD807D6
:1010100011F486ED29C08E819F81892B01F12A87E9
:10102000242F40E0CE010E94C300182F8823C9F06E
:10103000682FCE010E943701009759F3FC01048309
:10104000212F40E060E0CE010E94F706082F8823A0
:1010500051F0612FCE010E94DE07802F05C087ED81
:1010600003C084ED01C080E0DF91CF911F910F910B
:1010700008952F923F924F925F926F927F928F923C
:101080009F92AF92BF92CF92DF92EF92FF920F9317
:101090001F93CF93DF93CDB7DEB766970FB6F89463
:1010A000DEBF0FBECDBF7C01862E742E922E1B8A12
:1010B00088E08C8B8CE38D8BD701ED91FC910190B6
:1010C000F081E02D60E0C70109956C01009709F4FB
:1010D000ABC0FC01A080B180CE0143969183808398
:1010E00094828E010F5F1F4F22E130E040E060E00C
:1010F000C7010E944A06D601AD92BC928111ACC0D4
:1011000029843A844B845C84BD81BE8B1E81570147
:10111000612C6501E6E5CE0ED11CD6018D919C9126
:10112000009789F1DC01ED91FC910084F185E02DBF
:101130000995811128C0F60180819181DC01ED9132
:10114000FC910088F189E02D612F09958823D9F061
:10115000F60180819181DC01ED91FC910484F5859B
:10116000E02DA201B1010995811160C0F6018081D5
:101170009181DC01ED91FC910684F785E02D6E896B
:101180000995811153C06394B2E0AB0EB11CE0E14C
:101190006E12BFCF5701612C6501F6E5CF0ED11C51
:1011A000D6018D919C91009789F1DC01ED91FC9124
:1011B0000084F185E02D0995811128C0F601808118
:1011C0009181DC01ED91FC910088F189E02D612F86
:1011D00009958823B1F1F60180819181DC01ED91BF
:1011E000FC910484F585E02DA201B10109958111DE
:1011F0000DC0F60180819181DC01ED91FC910684A6
:10120000F785E02D6E8909958823D9F06394B2E0C3
:10121000AB0EB11CE0E16E12BFCF292D472D682D1A
:10122000C7010E94FF0718C086ED16C0092D272DA3
:10123000482D662DC7010E94A202813D09F4A3CF6B
:101240000BC0092D272D482D662DC7010E94A20233
:10125000982F977F913DD1F266960FB6F894DEBF36
:101260000FBECDBFDF91CF911F910F91FF90EF90F7
:10127000DF90CF90BF90AF909F908F907F906F90B6
:101280005F904F903F902F90089588EF0E949A01B1
:10129000807C8034A1F018F4882301F1089580380F
:1012A00019F0803CB9F0089588ED0E949A0181FD03
:1012B0000BC069EC88ED0E94B20182E00CC088EDA1
:1012C0000E949A0181FDF5CF6BEC88ED0E94B2017E
:1012D00083E001C081E08093FE01089561ED88ED17
:1012E0000E94B2011092FE010895FF920F931F9386
:1012F000CF93DF93EC0119990EC088EC0E949A01FC
:1013000085FF05C0CE010E94450960E201C060E092
:1013100088EC0E94B2018091FE01813051F058F0BA
:10132000823029F0833039F5FF24F3940DC0F12C7D
:101330000BC083E106C08091FF01807F8031D9F02E
:1013400081E18093FF0117C08091FF01807F803190
:1013500099F40E94AC1668537F4F8F4F9F4F609354
:10136000FA017093FB018093FC019093FD0180E2F0
:101370008093FF0101C0F12C00E010E0FE01E00FBE
:10138000F11FEA5AFF4F80819181009739F0DC010B
:10139000ED91FC910680F781E02D09950E5F1F4FBE
:1013A0000032110559F78091FF01803409F446C0DD
:1013B00070F4803269F18033D9F1813109F088C04D
:1013C000FE01EA58FF4F108200E010E00AC08135AC
:1013D00009F45AC0803809F46AC0803509F078C031
:1013E0003CC0FE01E00FF11FEA5AFF4F808191815E
:1013F000009739F0DC01ED91FC910480F581E02D3E
:1014000009950E5F1F4F0032110559F782E15EC04A
:101410000E94AC160091FA011091FB012091FC0191
:101420003091FD01601B710B820B930B97FD50C037
:1014300061E088EE0E94B20180E448C088EE0E941C
:101440009A0180FD45C088ED0E949A01682F68606E
:1014500088ED0E94B20180E539C088EC0E949A01B3
:1014600086FF36C081E58093FF010E94AC166C5E5A
:101470007F4F8F4F9F4F6093FA017093FB018093D2
:10148000FC019093FD0124C00E94AC160091FA016A
:101490001091FB012091FC013091FD01601B710B4B
:1014A000820B930B97FD14C080E88093FF012F2DD2
:1014B00040E060E0CE010E943908882331F0823D8F
:1014C00039F08093000280EA01C080E98093FF0137
:1014D000DF91CF911F910F91FF900895089580E0C3
:1014E000089581E0089580E00895FC0182890895BF
:1014F000FC0185890895613D784129F45D5281E0C0
:101500004230510508F080E00895DC01ED91FC9136
:101510000190F081E02D0994EF92FF92CF93DF9339
:10152000DC01E70154962C9154972330E1F0539657
:101530006C9353978B8181FF16C03A81832F8095DE
:10154000881F8827881F8F5F90E0FC01EE0FFF1F28
:10155000E80FF91FEA0FFB1F3F70368B8C81878BDA
:101560002F5F54962C93DF91CF91FF90EF900895C9
:10157000CF93DF93EC0188899989DC01ED91FC918F
:101580000480F581E02D6A89099581E08C8B1A8AA7
:101590001D8A80E0DF91CF9108952F923F924F9264
:1015A0005F926F927F928F929F92AF92BF92CF92F3
:1015B000DF92EF92FF920F931F93CF93DF9300D0B0
:1015C00000D0CDB7DEB76C017C836B835A8349832F
:1015D0004C0180E1880E911C5601A7E0AA0EB11CB7
:1015E00011E054E0452E67E0362E3601B2E16B0E75
:1015F000711C73E0272EE2E05E2E8B819C81892B8B
:1016000009F405C1F60180A1823061F128F4882334
:1016100049F0813079F0F1CF833041F1843009F421
:101620004BC0EBCF54828581968190878783528609
:10163000518610A3AE014D5F5F4FBE016F5F7F4FBC
:10164000C5010E94DF0E882309F4E1C0D60115967A
:10165000ED91FC911697808191968C939197818161
:1016600092968C93F6017682658220A2D60192969C
:101670008C91843081F018F4823079F014C0853078
:1016800081F0813281F4D60191968C9191978250AC
:1016900014968C9308C0F60113A2D60114963C92BE
:1016A00002C0F6018483F601858196819087878345
:1016B00084818287818740A2D60192968C91843062
:1016C000A9F08530D1F1823009F062C0AE014D5FE2
:1016D0005F4FBE016F5F7F4FC5010E94DF0E882301
:1016E00009F495C0F601858984A382C0AE014D5FDF
:1016F0005F4FBE016F5F7F4FC5010E94DF0E8823E1
:1017000009F485C0D60198968C919897811170C084
:1017100093961C93939752968C91529796968C938E
:10172000969753968C91539797968C939797579635
:101730008C91579795968C935BC0AE014D5F5F4F30
:10174000BE016F5F7F4FC5010E94DF0E882309F441
:101750005EC0F60183A1882309F44AC08281938187
:10176000009709F445C0DC01ED91FC910190F081F6
:10177000E02D7401D60195960C91959797962C9132
:10178000979796964C91969794966C91099530C040
:10179000F60181A19585992319F0913031F023C08C
:1017A00090E002979787868715872B813C818981F6
:1017B0009A81782F692FD6011E964D915C911F97C3
:1017C00041155105E9F001962115310541F04150CF
:1017D0005109F6015787468721503109EACF7983AD
:1017E0006A831C821B82F60186859785892B79F492
:1017F000D60116969C928E92159790961C92FDCECD
:101800009A8389833C832B83F6011586ECCF0F9056
:101810000F900F900F90DF91CF911F910F91FF903C
:10182000EF90DF90CF90BF90AF909F908F907F9080
:101830006F905F904F903F902F9008958F929F925E
:10184000AF92BF92CF92EF920F931F921F927F930E
:101850006F931F9222E02F93F2E08F2E912CA12CF8
:10186000B12CC12CE12C03E320EC40E0FC016289A7
:10187000808991890E946A050F900F900F900F90B8
:101880000F900F900F91EF90CF90BF90AF909F90DF
:101890008F9008958F929F92AF92BF92CF92EF92C6
:1018A0000F93DA010D900020E9F74D01841A950A93
:1018B000A62EB12C1F921F925F934F939F928F92EF
:1018C000C12CE12C04E320E440E0FC016289808922
:1018D00091890E946A050F900F900F900F900F90C2
:1018E0000F900F91EF90CF90BF90AF909F908F90FF
:1018F00008953F924F925F926F927F928F929F9244
:10190000AF92BF92CF92DF92EF92FF920F931F930D
:10191000CF93DF93CDB7DEB7EB970FB6F894DEBF6A
:101920000FBECDBF3C01462E342E522EDC01509608
:10193000ED90FC90519752968C918111A5C1D701E1
:10194000ED91FC910190F081E02D60E0C7010995D7
:101950006C01009711F486ED9AC1FC0180809180A2
:101960008114910409F492C15301F6E1AF0EB11C48
:10197000DC011196BC92AE9214965C928E01065DCB
:101980001F4F22E130E040E060E0F301808991895F
:101990000E944A06182FD6018D929C9281116AC12D
:1019A000D701ED91FC910280F381E02D232D40E0E1
:1019B000642DC7010995F301828B99A9978B282F74
:1019C00040E060E0808991890E94F706182FD701D6
:1019D000ED91FC91D60114961C92882359F0048055
:1019E000F581E02DD30152966C91C7010995F30161
:1019F000128A48C10190F081E02DD30152966C917A
:101A0000C7010995009709F4A6CFFC0154829501FE
:101A100041E0D30152966C91529750968D919C91D2
:101A200051970E947201182F811124C18AA99BA984
:101A3000813D984109F082C08CA99DA99D520297D1
:101A400008F07CC04BAC512CA4E3CA2EA1E0DA2EE6
:101A50004301E2E08E0E911C7E01F1E1EF0EF11CDC
:101A6000541409F444C0DA82C9829C828B821E8697
:101A7000188A1F8619A21AA21BA219A6FF82EE823B
:101A8000F986E8868D818B878A87FD86EC8661E002
:101A900070E080E090E00E94DB168E010F5F1F4F28
:101AA000252D40E0D30152966C91529750968D911E
:101AB0009C9151970E949806811106C0F301848978
:101AC0008330A8F45394CCCF8E010F5F1F4F252D88
:101AD00040E0D30152966C91529750968D919C9113
:101AE00051970E949806182F882341F3C3C0F30131
:101AF00084898330B9F0D30153962C91539740E0F9
:101B000052966C91529750968D919C9151970E944C
:101B10002607182F8111AEC081E0D30155968C9312
:101B200080E0B5C0950143E0F30162898089918925
:101B30000E947201182F81119DC0DDCF8FEF9FEFA2
:101B40009A83898361E070E080E090E00E94DB1678
:101B5000BE016F5F7F4FC3010E941E0C811180C0C8
:101B600064E670E080E090E00E94DB16F3014481BF
:101B7000558160E0C3010E944A0C6AE070E080E099
:101B800090E00E94DB16D30116964D915C91179759
:101B900061E0C3010E944A0C6AE070E080E090E0DE
:101BA0000E94DB16F3014085518562E0C3010E946B
:101BB0004A0C6AE070E080E090E00E94DB16D301FE
:101BC0001A964D915C911B9763E0C3010E944A0CE9
:101BD0006AE070E080E090E00E94DB16F30144854B
:101BE000558564E0C3010E944A0C6AE070E080E021
:101BF00090E00E94DB16D3011E964D915C911F97D9
:101C000065E0C3010E944A0C64E670E080E090E069
:101C10000E94DB161F921F921F921F921F921F920B
:101C2000812C912CA12CB12CC12CE12C05E320E4BA
:101C300040E0F3016289808991890E946A05182F2A
:101C40000F900F900F900F900F900F90811112C076
:101C500064E670E080E090E00E94DB1610EE0AC0BF
:101C6000BE016F5F7F4FC3010E941E0C182F882397
:101C700009F476CFD301ED91FC910480F581E02D3C
:101C8000C3010995812F03C089ED01C087EDEB9653
:101C90000FB6F894DEBF0FBECDBFDF91CF911F917D
:101CA0000F91FF90EF90DF90CF90BF90AF909F90FB
:101CB0008F907F906F905F904F903F900895AF927C
:101CC000BF92CF92DF92EF92FF920F931F93CF9329
:101CD000DF93FC0184E191E0918380838EE291E0C7
:101CE00093838283558344833783268311870087B8
:101CF000F386E286D586C486B786A686718B608B0E
:101D0000128A138A81E0848B158A168A88E0878B71
:101D10008CE3808F118E128E84E0838F148E158E4B
:101D2000868F61157105B9F0CB01A0E0B0E0EC0140
:101D3000CA5ADF4F28813981232B41F49B96AA0F81
:101D4000BB1FA60FB71FED93FC9305C0119602961B
:101D5000A031B10561F7DF91CF911F910F91FF90F5
:101D6000EF90DF90CF90BF90AF900895EF920F93D8
:101D70001F93FC019B01E12C8A01418D62898089BE
:101D800091890E944B071F910F91EF9008950F9337
:101D90001F93FC019B018A01448D6289808991898E
:101DA0000E945A041F910F910895EF92FF920F9392
:101DB00002970E948C0A0F91FF90EF900895CF93A5
:101DC000DF93FC01EA0180819181892B21F580E07C
:101DD00028C088819981892BD1F3DB018D919C9159
:101DE000DC015C91238130E0241B310980819181E9
:101DF000820F931FDC015C938281815082838881F2
:101E00009981019799838883DB018D919C9111972A
:101E100001968D939C9342814111DBCF8381828314
:101E200081E0DF91CF9108950F931F93CF93DF93BC
:101E30008C01FC01C081D181209731F0CE010E943C
:101E4000F614CE010E946016C0E0D0E0F801D18304
:101E5000C08315821482209751F0CE010E94F6149F
:101E6000CE01DF91CF911F910F910C946016DF91FD
:101E7000CF911F910F9108958F929F92AF92BF9231
:101E8000CF92DF92EF92FF920F931F93CF93DF9346
:101E9000CDB7DEB728970FB6F894DEBF0FBECDBF23
:101EA0006C015B0100E010E0812C912CF601848133
:101EB0009581881699060CF042C0D601ED90FC90F1
:101EC000E00EF11EB701CE0101960E949115F701B7
:101ED0008681978198878F83B501CE0101960E94F4
:101EE0002116F82ECE0101960E94F614FF2009F16A
:101EF00066E371E084EA92E00E94B514B50184EAD9
:101F000092E00E94D214D601ED90FC90E00EF11EFA
:101F1000B701CE0101960E949115D7011696ED9159
:101F2000FC911797F887EF830995CE0101960E94DF
:101F3000F614BFEF8B1A9B0A085F1F4FB7CF289686
:101F40000FB6F894DEBF0FBECDBFDF91CF911F91CA
:101F50000F91FF90EF90DF90CF90BF90AF909F9048
:101F60008F900895CF92DF92EF92FF920F931F937D
:101F7000CF93DF93CDB7DEB761970FB6F894DEBF8E
:101F80000FBECDBF6C0186E292E00E947509909170
:101F90001C0280919D02992309F448C0811109C057
:101FA00081E080939D0266E870E084EA92E00E94FE
:101FB000821489E090E0998B888B8E010F5F1F4F10
:101FC000A801BE01605F7F4F87E092E00E94B60EDD
:101FD0008B7FB9F061E072E0CE010A960E94911504
:101FE000BE01665F7F4FC6010E943C0FCE010A967C
:101FF0000E94F61468E471E081E092E00E949A1574
:102000001FC088899989892B29F378018889998942
:102010009701201B310B28173907E0F6F701619172
:102020007F0181E092E00E94DE15F0CF882341F02D
:1020300010929D0268E670E084EA92E00E948214A9
:1020400061960FB6F894DEBF0FBECDBFDF91CF9182
:102050001F910F91FF90EF90DF90CF900895AF9276
:10206000BF92CF92DF92EF92FF920F931F93CF9385
:10207000DF93CDB7DEB75B01EDB6FEB686E292E048
:102080000E94750980911C02882321F1F5010481C9
:1020900015810F5F1F4F8DB79EB7801B910B0FB639
:1020A000F8949EBF0FBE8DBFEDB7FEB731966F019E
:1020B00020E030E0A801BF01C5010E943416A6014E
:1020C000B80187E092E00E94C70E0FB6F894FEBEFA
:1020D0000FBEEDBE0FB6F894FEBE0FBEEDBEDF9193
:1020E000CF911F910F91FF90EF90DF90CF90BF9015
:1020F000AF9008956F927F928F929F92AF92BF920E
:10210000CF92DF92EF92FF920F931F93CF93DF93C3
:10211000CDB7DEB760970FB6F894DEBF0FBECDBF68
:102120008C017B016A0168E471E0CE0109960E948E
:102130006415F88AEF86B601CE0109960E947A15D9
:10214000BE01675F7F4FCE0101960E9491158F857A
:10215000988998878F83F801A480B5806501FFEF87
:10216000CF1ADF0A81EEC8168FE0D80640F4C60108
:1021700023E0880F991F2A95E1F7029602C08FEF9E
:102180009FEF0E945E16FC01C192D1927F016F0108
:10219000EFEFAE16BE0661F068E471E0C7010E9481
:1021A0006415F8E0EF0EF11C81E0A81AB108F0CF39
:1021B0007601612C712C812C912CF8018481958100
:1021C000A080B18088169906B4F4A60CB71CB5019E
:1021D000C7010E947A15F50186819781F7019783DF
:1021E0008683FFEF8F1A9F0A88E0680E711CE8E073
:1021F000EE0EF11CE2CFA114B10431F0C5010E9432
:10220000F614C5010E946016F801D182C082E480F4
:10221000F58083E0EE0CFF1C8A95E1F7EC0CFD1CC9
:10222000BE016F5F7F4FC7010E947A158F8198852D
:10223000F70197838683F8018481958101969583C0
:102240008483CE0101960E94F61469E471E084EA69
:1022500092E00E94E414CE0109960E94F614609662
:102260000FB6F894DEBF0FBECDBFDF91CF911F91A7
:102270000F91FF90EF90DF90CF90BF90AF909F9025
:102280008F907F906F9008952A988EBD0DB407FEB1
:10229000FDCF1EBC0DB407FEFDCF0E9498018EB588
:1022A00008952A9882608EBD0DB407FEFDCF6EBDE5
:1022B0000DB407FEFDCF0C9498010F931F93CF939D
:1022C000DF938C01229A0E949801259A239A2498E0
:1022D000229A80E58CBD81E08DBD219868E188E877
:1022E0000E94511160E288E70E94511160E088E786
:1022F0000E945111C0E0D0E088E60E94441121966E
:1023000080FD06C0CF3F8FEFD807B1F78FEF1DC01C
:1023100061EC88ED0E94511160E680ED0E94511140
:1023200064E088EE0E94511188EE0E94441182FF01
:10233000FBCFC8010E94450960E288EC0E94511160
:1023400061E080E80E94511180E0DF91CF911F9100
:102350000F910895FC011582148286E292E00E949A
:102360005D118F3F39F467E571E084EA92E00E94E5
:10237000B514FFCF0895AF92BF92CF92DF92EF9244
:10238000FF920F931F9386E292E00E947F0033E753
:10239000A32E31E0B32E4DE7C42E41E0D42E55E9F3
:1023A000E52E51E0F52E09E911E023EB31E040EC98
:1023B00051E066E272E087E092E00E945F0E68E41E
:1023C00071E081E092E01F910F91FF90EF90DF901C
:1023D000CF90BF90AF900C94641581E092E00C9484
:1023E000F614CF93DF9300D000D000D0CDB7DEB786
:1023F0006DEC71E0CE0101960E946415BE016F5F25
:102400007F4F8EE992E00E942F10CE0101960E942C
:10241000F61426960FB6F894DEBF0FBECDBFDF913F
:10242000CF9108950895CF93DF9300D000D000D0CE
:10243000CDB7DEB726E040E052EC61E070E084EA20
:1024400092E00E943D1364EE71E0CE0101960E947D
:102450006415AE014F5F5F4F61EF71E18EE992E06D
:102460000E947A10CE0101960E94F61426960FB6AD
:10247000F894DEBF0FBECDBFDF91CF9108958EE9F6
:1024800092E00C94B20F0E9403170E9412120E9455
:102490001312C7E8D2E10E943F122097E1F30E9495
:1024A0008712F9CF8EE992E00C94AA118EE992E09E
:1024B0000C94140FFC01818D228D90E0805C9F4F65
:1024C000821B91098F7399270895FC01918D828D4C
:1024D000981731F0828DE80FF11D858D90E00895F9
:1024E0008FEF9FEF0895FC01918D828D981761F019
:1024F000828DDF01A80FB11D5D968C91928D9F5F3B
:102500009F73928F90E008958FEF9FEF089587EF6C
:1025100093E1892B49F080E090E0892B29F00E941B
:10252000F71381110C9400000895FC01848DDF01E4
:10253000A80FB11DA35ABF4F2C91848D90E0019636
:102540008F739927848FA689B7892C93A089B18925
:102550008C9180648C93938D848D981306C002882F
:10256000F389E02D80818F7D80830895CF93DF9361
:10257000EC01888D8823C9F0EA89FB89808185FD7B
:1025800005C0A889B9898C9186FD0FC00FB607FCDC
:10259000F5CF808185FFF2CFA889B9898C9185FF1D
:1025A000EDCFCE010E949512E7CFDF91CF91089534
:1025B000CF92DF92FF920F931F93CF93DF931F92DF
:1025C000CDB7DEB76C01DC015B969C915B975C96A6
:1025D0008C915C97981307C05096ED91FC915197A0
:1025E000808185FD32C0F601038D10E00F5F1F4F23
:1025F0000F731127F02EF601848DF81211C00FB65B
:1026000007FCF9CFD6015096ED91FC91519780814E
:1026100085FFF1CFC60169830E9495126981EBCFD6
:10262000838DE80FF11DE35AFF4F6083D6015B965F
:102630000C935B975296ED91FC9153978081806249
:10264000808381E058968C930DC0D6015696ED910B
:10265000FC91579760835096ED91FC915197808142
:102660008064808381E090E00F90DF91CF911F9193
:102670000F91FF90DF90CF900895BF92CF92DF929D
:10268000EF92FF92CF93DF93EC016A017B01B22EB0
:10269000E889F98982E08083411581EE5807610558
:1026A0007105A1F060E079E08DE390E0A70196016B
:1026B0000E943F172150310941095109569547950C
:1026C00037952795211580E1380798F0E889F98931
:1026D000108260E874E88EE190E0A70196010E9404
:1026E0003F172150310941095109569547953795B2
:1026F0002795EC85FD853083EE85FF852083188E38
:10270000EC89FD89B082EA89FB89808180618083C0
:10271000EA89FB89808188608083EA89FB898081DE
:1027200080688083EA89FB8980818F7D8083DF9147
:10273000CF91FF90EF90DF90CF90BF9008951F92C0
:102740000F920FB60F9211242F938F939F93EF93B5
:10275000FF93E091B402F091B5028081E091BA025A
:10276000F091BB0282FD12C090818091BD028F5F0B
:102770008F732091BE02821751F0E091BD02F0E00C
:10278000EC55FD4F958F8093BD0201C08081FF9174
:10279000EF919F918F912F910F900FBE0F901F90EF
:1027A00018951F920F920FB60F9211242F933F93FB
:1027B0004F935F936F937F938F939F93AF93BF9349
:1027C000EF93FF9384EA92E00E949512FF91EF91BC
:1027D000BF91AF919F918F917F916F915F914F9139
:1027E0003F912F910F900FBE0F901F90189584EA84
:1027F00092E00E945A1221E0892B09F420E0822FF6
:1028000008951092A7021092A60288EE93E0A0E02D
:10281000B0E08093A8029093A902A093AA02B0937B
:10282000AB028EEE91E09093A5028093A40285EC1A
:1028300090E09093B1028093B00284EC90E090938A
:10284000B3028093B20280EC90E09093B502809343
:10285000B40281EC90E09093B7028093B60282ECD0
:1028600090E09093B9028093B80286EC90E0909348
:10287000BB028093BA021092BD021092BE02109267
:10288000BF021092C0020895CF92DF92EF92FF92A2
:102890000F931F93CF93DF936C017A01EB01E60E48
:1028A000F71E00E010E0CE15DF0561F06991D6015A
:1028B000ED91FC910190F081E02DC6010995080F82
:1028C000191FF1CFC801DF91CF911F910F91FF9098
:1028D000EF90DF90CF9008956115710581F0DB01D5
:1028E0000D900020E9F7AD0141505109461B570BEF
:1028F000DC01ED91FC910280F381E02D099480E0F0
:1029000090E00895EF92FF920F931F93CF93DF9380
:102910008C01FB01C0E0D0E064917F018FEFE81AE9
:10292000F80A662361F0D801ED91FC910190F081E5
:10293000E02DC8010995C80FD91FF701EDCFCE01D1
:10294000DF91CF911F910F91FF90EF900895DC01DF
:10295000ED91FC91DB0114964D915C9115976D9171
:102960007C910280F381E02D09940C946C14DC01BD
:10297000ED91FC910190F081E02D09940F931F934C
:10298000CF93DF93EC016DE00E94B7148C016AE0F5
:10299000CE010E94B714800F911FDF91CF911F913C
:1029A0000F9108950F931F93CF93DF93EC010E9433
:1029B000A7148C01CE010E94BE14800F911FDF91DD
:1029C000CF911F910F9108950F931F93CF93DF9392
:1029D000EC010E946C148C01CE010E94BE14800F89
:1029E000911FDF91CF911F910F910895FC0180817C
:1029F00091810C94FF17CF93DF93EC01888199812B
:102A0000009711F00E94FF17198218821D821C8204
:102A10001B821A82DF91CF9108950F931F93CF935A
:102A2000DF93EC018B016F5F7F4F888199810E945A
:102A30008E18009731F0998388831B830A8381E085
:102A400001C080E0DF91CF911F910F910895CF9346
:102A5000DF93EC0188819981892B29F08A819B8100
:102A60008617970760F4CE010E940D15882341F068
:102A70008C819D81892B19F4E881F981108281E094
:102A8000DF91CF910895EF92FF920F931F93CF9311
:102A9000DF93EC017B018A01BA010E9427158111A5
:102AA00004C0CE010E94FB1407C01D830C83B70134
:102AB000888199810E946A19CE01DF91CF911F917F
:102AC0000F91FF90EF900895FC0111821082138204
:102AD0001282158214826115710559F0FB01019073
:102AE0000020E9F7AF0141505109461B570B0C94E8
:102AF00043150895CF93DF93EC01FB0186179707E9
:102B000061F0608171816115710529F04481558101
:102B10000E94431502C00E94FB14CE01DF91CF91A9
:102B20000895FC0111821082138212821582148290
:102B30000C947A15CF93DF93EC016115710561F068
:102B4000FB0101900020E9F7AF0141505109461BFC
:102B5000570B0E94431502C00E94FB14CE01DF9167
:102B6000CF910895EF92FF920F931F93CF93DF932E
:102B7000EC017B010C811D816115710511F480E070
:102B800016C04115510591F0040F151FB8010E94A0
:102B900027158823A1F3288139818C819D81B70174
:102BA000820F931F0E946A191D830C8381E0DF91BD
:102BB000CF911F910F91FF90EF900895CF93DF93E6
:102BC00000D0CDB7DEB769831A8241E050E0BE0184
:102BD0006F5F7F4F0E94B2150F900F90DF91CF91E2
:102BE0000895CF93DF93DC01ED91FC91EB01A88177
:102BF000B981309711F01097C9F4109759F0EB0193
:102C00002C813D81232B31F08C9190E09195819521
:102C1000910914C0309781F0DC0114968D919C913C
:102C20001597892B49F0808190E008C0BD01CF0144
:102C3000DF91CF910C94611980E090E0DF91CF910A
:102C40000895FC0144815581FB012481358142179F
:102C5000530741F40E94F11521E0892B09F020E08F
:102C6000822F089580E008950F931F93CF93DF93F1
:102C7000EB0141155105E9F02097D9F0FC01648181
:102C8000758126173707A0F4621B730B8A01015068
:102C900011096017710708F48B01FC0160817181D3
:102CA000620F731FA801CE010E947119C00FD11FBE
:102CB0001882DF91CF911F910F9108950C9467179F
:102CC0000C94FF171F920F920FB60F9211242F939F
:102CD0003F938F939F93AF93BF93809142039091C3
:102CE0004303A0914403B09145033091410323E095
:102CF000230F2D3720F40196A11DB11D05C026E834
:102D0000230F0296A11DB11D20934103809342031E
:102D100090934303A0934403B093450380914603EB
:102D200090914703A0914803B09149030196A11DDA
:102D3000B11D8093460390934703A0934803B0933B
:102D40004903BF91AF919F918F913F912F910F9028
:102D50000FBE0F901F9018952FB7F8946091420303
:102D60007091430380914403909145032FBF0895D0
:102D70003FB7F8948091460390914703A091480390
:102D8000B091490326B5A89B05C02F3F19F00196C5
:102D9000A11DB11D3FBF6627782F892F9A2F620F83
:102DA000711D811D911D42E0660F771F881F991FBD
:102DB0004A95D1F70895CF92DF92EF92FF92CF9389
:102DC000DF936B017C010E94B816EB01C114D104A2
:102DD000E104F10489F00E943E170E94B8166C1BB2
:102DE0007D0B683E734090F381E0C81AD108E1087A
:102DF000F108C851DC4FEACFDF91CF91FF90EF90FF
:102E0000DF90CF900895789484B5826084BD84B5B6
:102E1000816084BD85B5826085BD85B5816085BDD5
:102E2000EEE6F0E0808181608083E1E8F0E01082EE
:102E3000808182608083808181608083E0E8F0E02F
:102E4000808181608083E1EBF0E080818460808319
:102E5000E0EBF0E0808181608083EAE7F0E0808150
:102E600084608083808182608083808181608083B0
:102E70008081806880831092C10008950895A1E246
:102E80001A2EAA1BBB1BFD010DC0AA1FBB1FEE1FE4
:102E9000FF1FA217B307E407F50720F0A21BB30B2F
:102EA000E40BF50B661F771F881F991F1A9469F7AB
:102EB00060957095809590959B01AC01BD01CF0107
:102EC0000895EE0FFF1F0590F491E02D0994CF9324
:102ED000DF938230910510F482E090E0E0914C03A2
:102EE000F0914D0320E030E0A0E0B0E0309739F100
:102EF0004081518148175907B8F04817590771F4B4
:102F000082819381109729F013969C938E93129748
:102F10002CC090934D0380934C0327C0211531059D
:102F200031F04217530718F0A901DB0101C0EF018E
:102F30009A01BD01DF010280F381E02DD7CF211579
:102F40003105F9F0281B390B2430310580F48A81D2
:102F50009B816115710521F0FB019383828304C07D
:102F600090934D0380934C03FE01329644C0FE01C2
:102F7000E20FF31F81939193225031093983288303
:102F80003AC020914A0330914B03232B41F4209106
:102F900002013091030130934B0320934A032091A7
:102FA0000001309101012115310541F42DB73EB7E3
:102FB0004091040150910501241B350BE0914A0317
:102FC000F0914B03E217F307A0F42E1B3F0B2817D9
:102FD000390778F0AC014E5F5F4F2417350748F092
:102FE0004E0F5F1F50934B0340934A03819391937D
:102FF00002C0E0E0F0E0CF01DF91CF910895CF93E0
:10300000DF93009709F487C0FC0132971382128284
:10301000C0914C03D0914D03209781F420813181E0
:10302000280F391F80914A0390914B038217930711
:1030300079F5F0934B03E0934A036DC0DE0120E085
:1030400030E0AE17BF0750F412964D915C91139784
:103050009D014115510509F1DA01F3CFB383A28334
:1030600040815181840F951F8A179B0771F48D91C0
:103070009C911197840F951F0296918380831296DD
:103080008D919C911397938382832115310529F4A7
:10309000F0934D03E0934C033EC0D9011396FC938B
:1030A000EE9312974D915D91A40FB51FEA17FB07A0
:1030B00079F480819181840F951F0296D901119630
:1030C0009C938E938281938113969C938E931297F7
:1030D000E0E0F0E08A819B81009719F0FE01EC01AD
:1030E000F9CFCE01029628813981820F931F20915A
:1030F0004A0330914B032817390769F4309729F4B4
:1031000010924D0310924C0302C013821282D0938E
:103110004B03C0934A03DF91CF910895A0E0B0E044
:10312000E4E9F8E10C948419EC01CB01209719F43F
:103130000E946717B8C0FE01E60FF71F9E012250DC
:103140003109E217F30708F4ACC0D9010D911C91C5
:10315000119706171707B8F00530110508F49FC03E
:10316000A801445051094617570708F498C0025067
:103170001109061B170B019311936D937C93CF01DB
:103180000E94FF178CC05B01A01AB10A4E01800E8D
:10319000911EA0914C03B0914D03612C712C60E005
:1031A00070E0109709F449C0A815B905C9F5ED906C
:1031B000FC901197670142E0C40ED11CCA14DB04D5
:1031C00078F147018A189B08640142E0C40ED11CC3
:1031D0001296BC9012971396AC91B5E0CB16D10421
:1031E00040F0B282A38391828082D9018D939C9317
:1031F00009C00E5F1F4F0E0D1F1DF90111830083C3
:10320000EB2DFA2F6115710531F0DB011396FC935C
:10321000EE93129744C0F0934D03E0934C033FC0EC
:103220006D917C9111976616770608F43B01BD01FC
:1032300012960D90BC91A02DB4CF60914A0370916D
:103240004B0368157905E9F468167906D0F44091C6
:103250000001509101014115510541F44DB75EB790
:103260006091040170910501461B570BE417F507A7
:10327000C0F4F0934B03E0934A03F90191838083F8
:103280000EC00E9467177C01009759F0A801BE018B
:103290000E945819CE010E94FF17C70104C0CE0139
:1032A00002C080E090E0CDB7DEB7EEE00C94A0194C
:1032B000FB01DC0102C001900D9241505040D8F753
:1032C0000895FB01DC018D91019080190110D9F363
:1032D000990B0895FB01DC0101900D920020E1F7AC
:1032E0000895FB01DC014150504048F001900D92DF
:1032F0000020C9F701C01D9241505040E0F70895E9
:103300002F923F924F925F926F927F928F929F92F5
:10331000AF92BF92CF92DF92EF92FF920F931F93E3
:10332000CF93DF93CDB7DEB7CA1BDB0B0FB6F89494
:10333000DEBF0FBECDBF09942A88398848885F84D4
:103340006E847D848C849B84AA84B984C884DF8045
:10335000EE80FD800C811B81AA81B981CE0FD11D29
:103360000FB6F894DEBF0FBECDBFED01089510E09B
:10337000C6EAD0E004C0FE010E9463172296CA3A52
:08338000D107C9F7F894FFCF53
:1033880000004E038000000000003701C300DE0784
:1033980000000000790C850AB80A730A750A6E0ADB
:1033A8007B0A6F0A710A780A8C0AFEFF0000D50EA4
:1033B80000000000CD0A4D61746368656420636F86
:1033C8006D6D616E64203A20004164646564206319
:1033D8006F6D6D616E64000D0A4F53434F4B495238
:1033E80051206661696C656420746F206173736530
:1033F80072740031323334353637383900687474B2
:10340800703A2F2F6F627373726F626F7469637390
:103418002E636F6D00312E300050697269626F74CF
:103428002070696C6F74206170706C696361746975
:103438006F6E0050697269626F7450696C6F7400C6
:103448004F425353526F626F7469637300626174C1
:10345800746572727920766F6C746167653A203191
:10346800332E360067657442560000000000D812FB
:0A34780044145A1273126512B612C2
:00000001FF
